:020000000C945E
:100002006A000C9400000C9400000C9400000C9404
:1000120000000C9400000C9400000C9400000C945E
:1000220000000C9400000C9400000C9400000C944E
:1000320000000C9400000C9400000C9400000C943E
:1000420000000C9400000C9400000C9400000C942E
:1000520000000C9400000C9400000C9400000C941E
:1000620000000C9400000C9400000C9400000C940E
:1000720000000C9400000C9400000C9400000C94FE
:1000820000000C9400000C9400000C9400000C94EE
:10009200FA010C9400000C9400000C9400000C94E3
:1000A20000000C9400000C9400001027E803640088
:1000B2000A00010000100001100001002575000077
:1000C200070080C001008203C20002008F03C40047
:1000D2000000F894EE27EFBBF1E0F5BFE5BF8DE03D
:1000E200A2E0BB27ED938A95E9F780E09AE0A0E0D1
:1000F200B1E0ED930197E9F7E6ECF0E08591959197
:10010200009761F0A591B59105901590BF01F0019E
:1001120005900D920197E1F7FB01F0CFE0E0EEBB15
:10012200EFEFEDBFEAE0EEBFC0E8D3E00C94C00011
:100132001A931A2FE12FEF71E066E0937C0015FF0E
:1001420004C0E0917B00E06203C0E0917B00EF7DA0
:10015200E0937B0085E38A95F1F7E0917A00E06411
:10016200E0937A00E0917A00E071E1F3E0917A00A5
:10017200E061E0937A00E09179000C94D103E0E829
:10018200E0936100E0E0E0936100E8E0E4B9E0E0E0
:10019200E5B9E7B9E8B9EAB9EBB9EDB9EEB9E0BB4F
:1001A200E1BBE9BDE2BFE4BDE5BDE6BDE7BDE8BD3B
:1001B200E0938000E0938100E0938500E093840067
:1001C200E0938700E0938600E0938900E093880043
:1001D200E0938B00E0938A00E0938D00E0938C0023
:1001E200E0939000E0939100E0939500E0939400F7
:1001F200E0939700E0939600E0939900E0939800D3
:10020200E0939B00E0939A00E0939D00E0939C00B2
:10021200E2B7EF7CE2BFE0E0E093C000E093C10010
:10022200E093C200E093C300E093C4006BD4E09378
:10023200BE0068D4E093CF0065D4E093D00062D4CE
:10024200E093D1005FD4E093D200E0E0E093D400E9
:10025200E0936E00E0936F00E0937100E093720010
:10026200E0936900E0936A00EDBBE0936B00E093DA
:100272006800E093C900E0E8E0BFE0E0E0937B00C3
:10028200E0937F00E2E4E0937E00E0E0E0937D0013
:10029200E0E6E0937C00E4E8E0937A00E0E8E093B3
:1002A2007B00E0E4ECBDE0E0EDBDA4E6B0E013D0FD
:1002B2007894EFE3EA93A4E175D2E1E0EA93E2E015
:1002C20025D4A1E029D4E2E0EA93E3E01FD4A6E03A
:1002D20023D4F3CFFFCF6DD49D01F19AE7E0E093F1
:1002E2008203E0E0E0938B03E0938C03E0938D03C1
:1002F200E0938E0359985898E093BC00E091B900BE
:10030200EC7FE093B900F901A0E4BFE16FD41E2FA6
:10031200183008F018501093B800E091BC00E07853
:10032200E564E093BC004CD42496089524973FD40E
:100332001A2F2A853B850C854D855E85F19B55C01C
:10034200EF85EE0FE093830340938403509385037C
:10035200E0E0E093800300938603209387033093C9
:100362008803E093810310938903E6E0E09382031C
:100372007894003069F0042E052AB9F1103021F08A
:1003820000240216030609F001C02FC0F09A0BC028
:10039200103031F1022E032A41F1E0918303E16032
:1003A200E0938303F098F198E091BC00EF70E06A6B
:1003B200E093BC00E0E2F1EA67E070E0B6D3F199C5
:1003C2000FC0EE81FF81688579853197604070406A
:1003D200ACD329F4E5E0E0938203F19A06C0EFCFB3
:1003E200A0918203E0E0FDD301C0E0E0E7D3609694
:1003F20008950A921A92FA926A937A938A939A9336
:10040200AA93BA93EA93FA93EFB7EA935A934A9369
:100412003A932A931A930A931091810300918003CD
:100422003091860320918203E12FA0918703B0913E
:100432008803F0E0EA0FFB1FAF01E091B900E87F0B
:10044200E83011F420E002C0E03119F4E0918303B6
:1004520010C0E83111F0E83241F5031798F4E02FAB
:100462000F5FA0918403B0918503F0E0AE0FBF1F30
:10047200EC91E093BB00E091BC00EF70E068E09388
:10048200BC0012C0E09189031E1768F4E091830357
:10049200E160E0938303F098E091BC00EF70E06AC2
:1004A200E093BC000DC138C00BC1E03531F4E091DE
:1004B200BB00DA01EC931F5F02C0E03489F4E091E3
:1004C2008903E1501E1728F0E091BC00EF70E0684C
:1004D20004C0E091BC00EF70E06CE093BC00F0C09F
:1004E200E83531F4E091BB00DA01EC931F5F02C002
:1004F200E03209F402C0E03309F402C0E83469F4DE
:10050200203051F4F09B03C0031728F005C0E0919E
:1005120089031E1708F424E0CCC0E83331F422E04A
:10052200E091BC00EF70E068C8C0E83611F0E8372F
:1005320011F422E005C0E03611F0E037A1F420E02A
:1005420010E0F098E0918A03E03031F421E0E0918C
:10055200BC00EF70E06804C0E091BC00EF70E06C9A
:10056200E093BC00ADC0E03811F0E03939F5F09B02
:1005720002C021E09EC0E091BB00DA01EC931F5F54
:10058200E0918A031E17C0F4E0918B03F0918C0373
:10059200309711F426E08DC0A0E0E0918B03F0913A
:1005A2008C030995E03039F0E091BC00EF70E06C0B
:1005B200E093BC0085C001C0F09A02C0E83809F49B
:1005C20002C0E83939F4E091BC00EF70E068E093D2
:1005D200BC0076C0E03AB1F4E091BC00EF70E06C90
:1005E200E093BC00F19AE0918B03F0918C03309779
:1005F20039F0A1E0E0918B03F0918C03099501C0E1
:1006020026E05EC0E03B11F422E002C0E83AB1F419
:10061200E0918D03F0918E03309759F0A0E0E091C4
:100622008D03F0918E0309953E2FE03011F020E00A
:1006320002C026E03EC000E0F09802C0E83BF9F4B8
:10064200F09B02C021E035C0E02F0F5FA091840330
:10065200B0918503F0E0AE0FBF1FEC91E093BB00B9
:10066200031728F4E091BC00EF70E06C05C0F09A2B
:10067200E091BC00EF70E068E093BC0021C0E03C78
:1006820011F0E83C99F4E091BC00EF70E06CE0936B
:10069200BC00E0918D03F0918E03309731F0A1E020
:1006A200E0918D03F0918E03099509C0E03041F489
:1006B20023E0E091BC00EF70E06DE093BC00F19AA2
:1006C2001093810300938003209382033093860367
:1006D200099119912991399149915991E991EFBF64
:1006E200F991E991B991A991999189917991699138
:1006F200F9901990099018951DD2A091940321D2D6
:100702004FC018D2E095A0919403EA231FD248C0AB
:100712001A931A2FE0919303EA93E0919403EF70F6
:10072200AE2FE12FE07F0DD2A4E0E6DFA4E037C0D8
:10073200AA93A881EDDFE881E295E883A881E8DF4A
:1007420088EC90E00197F1F72196089503D2E12F0A
:10075200F0E0E157FC4FE081E00FAE2FE9DF402EE1
:10076200312E46C0A2E0FBD1ACE0E2DFA1E0F7D13E
:10077200E0E03E2E4E2E08951A931A2F1A3011F0F1
:10078200461438F0E0E0EA933394A32DDFDF1A3009
:1007920039F04394A1E0B0DFA12FCADFA1E0B1DFBD
:1007A20019910895D7D100939303E0919303EA93AB
:1007B200E8E0CCD1612EE12FE058E0939103E12FE4
:1007C200E054E0939203A4E1B0E030D2CCD1CBD19B
:1007D200CAD1A0E29DDF80E991E00197F1F7A8E29A
:1007E200A7DFA4E0A5DFA5E8A3DFA6E0A1DFBADFCB
:1007F2001981088123960895BA93AA93A991B99170
:10080200EE27FF276D91662311F03196FBCF0895F5
:10081200BA93AA93AA27BB27E991F99105900020E0
:1008220011F01196FBCFFD010895AA93E981EA9395
:10083200FE013196FA93EA93E1E0EA93E0E0F0E018
:10084200FA93EA93A0E072DD22960895BA93AA93EE
:100852002697ADD110E0AC85BD85E0E0F0E0ED93E8
:10086200FC93EA89FB893196EA8BFB8B3197E49101
:100872002E2FE03009F409C1E12FE03031F42532A6
:1008820011F411E001C076D1FFC0E130A1F42532AC
:1008920011F470D1F8C012E040E000E02D3211F402
:1008A20001E0F2C02B3211F44BE2EEC0203211F41F
:1008B20040E2EAC002C0E23039F450E013E02033F3
:1008C20011F40068E1C003C0E33009F0DDC0203359
:1008D20010F02A3308F007C0AAE05A9F502DE22FE9
:1008E200E0535E0FD1C0E22FE33639F44AD1E889F2
:1008F200F989A481AA934BD1C6C0E33729F441D127
:100902004CD17ADF1E2F07C0E03749F43AD145D1E6
:100912007FDF1E2F086002600F7730E038C0E436B8
:1009220011F0E93611F4046002C0E53731F4ECEA63
:10093200F0E0EE83FF8315E00CC0E83511F40860A7
:1009420003C0E83709F09FC0E6EBF0E0EE83FF83D7
:1009520014E002FF15C015D1A889B9891496ED914A
:10096200FD91EA87FB87AB85AA2322F436D1EA8779
:10097200FB874DE2403011F01F5F01C00B7F07C0C3
:1009820000D1A889B989149644D1EA87FB8700FD72
:1009920010C0151770F407FF08C002FF04C00B7FD8
:1009A200242F115001C020E301C020E2E3D05150B6
:1009B200F0CF312F01FF16C0303099F003FF06C08F
:1009C200EE81FF812591EE83FF8305C0AE81BF8159
:1009D2002D91AE83BF83CED0503009F051503150AB
:1009E200EBCF48C020E3EE81FF8117D1E887F9877A
:1009F200EE81FF813296EE83FF83E885F985AA8531
:100A0200BB85AE17BF0750F02F5FA885B985EA8571
:100A1200FB85EA1BFB0BEA87FB87EFCF2A3328F023
:100A220003FF02C0295F01C0295D04FD19C0213303
:100A320020F4A885B985119709F409C0531710F05D
:100A420000FF01C011C020E207FF0AC020E30061DD
:100A520002FF06C00B7F4A939AD0503009F05150E2
:100A620089D0503009F051503150A885B98512977C
:100A720008F0B8CF00FF07C0503029F05150E0E233
:100A8200EA9385D0F9CF10E0ECCEAC85BD85ED912F
:100A9200FD9194D0649608958CD08D013C81A32F52
:100AA2006BDED801ED91FD913196FE93EE9388D0E5
:100AB20025960895FF92F82E26977BD0FE0185D0C9
:100AC20034852585DE01169684D08D01E0E0EE8323
:100AD200EF83E887E9872A93A32F38DEDE011A968F
:100AE20078D0ED91FD91FA93EA931A930A93EDE48B
:100AF200F5E0FA93EA93DE011A96A8DE61D02A960F
:100B0200FF900895E0E0E093BF000895EA93EEEBD2
:100B1200F0E0FA93EA9308950BDBFF276627772725
:100B220080D084E0C7DF28960895EE83FF8368872C
:100B3200798708951A931A2FE0919303EA93E12F8C
:100B42000895EA2BE0939403AE2F6FCEE0939403C3
:100B5200AE2F6BCE1A930A931A2F0A810895E8DDFD
:100B6200A3E0B0E063C0A0E3D3DD80E991E00197A8
:100B7200F1F708952A93AD85BE85EF85F889099529
:100B82000895E889F9893497E88BF98B0895AD8542
:100B9200BE85EF85F88909950895A889B9891496C3
:100BA200ED91FD91EE83FF83AE81BF8108955A934B
:100BB2004A933A932A931A930A9308955D814C813A
:100BC2003B812A811981088108950024EF0DF01DCF
:100BD20008950024AF0DB01D0895F195E195F04000
:100BE2000895EA17E1E009F0EE27089500241124A0
:100BF20090E1AA0FBB1F001C111C0E1A1F0A18F449
:100C02000E0E1F1E01C0A1609A9599F7FD01D00139
:100C12000895ED91FC91119708950590F491E02DBE
:100C220008957A936A93FA93EA930895109639F0A5
:100C3200A89580EA9FE00197F1F71197C9F7089507
:00000001FF
